:100000000C9421030C943E030C943E030C943E0389
:100010000C943E030C943E030C943E030C943E035C
:100020000C943E030C943E030C9462290C941E29FC
:100030000C945F2A0C943E030C943E030C943E03F4
:100040000C943E030C943E030C943E030C943E032C
:100050000C943E030C943B2A0C943E030C943E03F8
:100060000C943E030C943E030C943E030C943E030C
:100070000C943E030C943E030C943E030C943E03FC
:100080000C943E030C943E030C943E030C943E03EC
:100090000C943E030C943E030C943E030C943E03DC
:1000A0000C943E030C943E030C943E03050109029C
:1000B000A10185020901A1000509190129081500FE
:1000C0002501950875018102050109300931158165
:1000D000257F95027508810609381581257F9501D0
:1000E00075088106050C0A38021581257F95017572
:1000F000088106C0C005010980A101850319012AF4
:10010000B700150126B700950175108100C0050CD8
:100110000901A101850419012AA002150126A002E6
:10012000950175108100C00660FF0961A101096297
:10013000150026FF00952075088102096315002629
:10014000FF00952075089102C005010906A101056F
:100150000719E029E7150025019508750181029529
:1001600001750881010507190029FF150026FF0008
:100170009506750881000508190129051500250156
:10018000950575019102950175039101C0FD377ABE
:10019000585A000004E6D6B44602002101160000B9
:1001A00000742FE5A3E0016F00965D003D8889A6ED
:1001B00054750A36E182AEFA7A1AA6FCA2ED4951CC
:1001C000391A5E7177BBD0558C3BA832869F744E2E
:1001D000F98317003EA32C7C4E911C1B94136B8F4C
:1001E000E09575CF3AD57CEBD4DCF2408CF51680E7
:1001F000B9C45842CAA9609325896ECC0AEDE21AA7
:10020000F46D4DE485CD08F23BA5AEE5760A23D921
:100210009CA0C9EA7B3F59A574368C33A95233D5CB
:1002200098A38D4DE217258B8B27E7FDBF2D1BDA99
:1002300012372C6CEB4F77868BCFF6DFE66E820E93
:10024000950B00000097863EBA4D3EFF550001B267
:1002500001F0020000DA8DD52CB1C467FB0200006A
:10026000000004595A010001009A03A80E8D0E00E7
:1002700000020002009603A80E8D0E00000300018C
:10028000009B03A80E8D0E0000040002008003A84E
:100290000E8D0EA006050001009C03A80E8D0E0019
:1002A00000060002008203A80E8D0E000007000267
:1002B000009803A80E8D0E0000080001009D03A801
:1002C0000E8D0E0000090002008403A80E8D0E7B27
:1002D000060A0002008603A80E8D0E7B060B0002A4
:1002E000008803A80E8D0E7B060C0002008A03A86E
:1002F0000E8D0E7B060D0002008C03A80E8D0E7B6A
:10030000060E0002008E03A80E8D0E7B060F000263
:10031000009003A80E8D0E7B06100002009203A829
:100320000E8D0E7B06110002009403A80E8D0E7B2D
:1003300006120002009E03A80E8D0E00001300029C
:1003400000A003A80E8D0E000014000100A203A857
:100350000E8D0E00001500000000000106D31400F1
:10036000002B0014001A000800150017001C0018CC
:10037000000C00120013002A0029210400160007B7
:100380000009420A000B000D000E000F003300347C
:1003900000E2001D281B00060019000500110010D6
:1003A0000036003700382828000000000000002335
:1003B00052E1002B2428432C412A000000000000B9
:1003C00000060135021F022F0230022002250223FF
:1003D000022402310231003501E00035002D0026F3
:1003E0000227021E02380221023602370238003488
:1003F00002E200E3002D022F0030002E0262002EE8
:100400000022023302000000000000000000000192
:1004100000E10000000100010000000000000000F9
:100420000000000000000000000000000025022481
:10043000002500260038002E00E00000000000002B
:1004400000010000002E022100220023002D0022C6
:1004500002E200E300000000000000000027001E90
:10046000001F0020003700580000000000000000BE
:10047000000000000000002C002A00000000000026
:1004800000000000004F042F0A300A00004A004E0E
:10049000004B000000000000000000E000E200E16E
:1004A00000E30000005000510052004F0000000027
:1004B000000000000000000000000050044D00009B
:1004C000000000000000000000000000000000012B
:1004D000000000000000002C002A000000000000C6
:1004E0000009025B00030100A0FA090400000103F7
:1004F00001010009211101000122440007058103C7
:100500000800010904010002030000000921110193
:1005100000012222000705820320000107050303D2
:10052000200001090402000103000000092111015B
:100530000001227B00070584032000011201000254
:10054000000000084B43504F0100010203011C034F
:100550007600690061006C003A00660036003400E5
:100560006300320062003300630000000A034F00A2
:1005700070007500730000001403720074007700AF
:10058000610079006C0061006E00640000000403EB
:10059000090400000000000000000000000000004E
:1005A000000000000000000000000000000000004B
:1005B0000000000000007E0F00D4FFFFFFC7000016
:1005C000007800000000000000002A2B2800000036
:1005D00000000000000000000000000000290000F2
:1005E00000002C1E3420212224342627252E362DCF
:1005F0003738271E1F202122232425263333362E69
:1006000037381F0405060708090A0B0C0D0E0F10DA
:100610001112131415161718191A1B1C1D2F31301F
:10062000232D350405060708090A0B0C0D0E0F10C3
:100630001112131415161718191A1B1C1D2F3130FF
:10064000354C11241FBECFEFDAE0DEBFCDBF11E085
:10065000A0E0B1E0E6ECF7E602C005900D92A63707
:10066000B107D9F724E0A6E7B1E001C01D92AF3D84
:10067000B207E1F70E94862A0C948D330C94000097
:10068000482F2091DD049091940459E0291302C071
:1006900080E0089530E0529FF001539FF00D112447
:1006A000EB56FB4F8181681306C08081481303C05D
:1006B00085818111EECF2F5F3F4F2770E7CFE8EDA7
:1006C000F0E080818E7F80831092E2001092DA0049
:1006D0001092E100A0EEB0E08C9181608C9380815B
:1006E0008F77808319BCA7EDB0E08C918E7F8C93BF
:1006F00080818F7E808310927D0408952091E40094
:100700003091E50095E6A9012091EC00822F8170DF
:1007100020FF06C08091E80080FF06C080E00895B9
:100720002091E80022FD1AC080918A04882389F074
:10073000853089F08091EB0085FD0FC02091E400A9
:100740003091E50042175307F9F29150E1F684E049
:10075000089582E0089583E0089581E008958091EE
:100760008C0487FF13C08091E80082FF06C080914F
:10077000E8008B778093E80004C080918A0481119F
:10078000F2CF089580918A048823D9F38091E800FC
:1007900080FFF8CF8091E8008E77ECCF982F909370
:1007A000E900242F762F50E0891731F07091EC008A
:1007B0002091ED005091F00021FD07C09F5F973020
:1007C00071F78093E90081E008953091EB003E7F5E
:1007D0003093EB003091ED003D7F3093ED00309190
:1007E000EB0031603093EB007093EC002093ED0050
:1007F0005093F0002091EE0027FDE0CF80E00895B7
:10080000B0E0A0E0E6E0F4E00C94D032C8EDD0E037
:1008100088818F7E8883E7EDF0E08081816080832E
:1008200084E082BF81E080937D0488818E7F88830D
:1008300002EE10E0F80110821092DA0081EEC82E6C
:10084000D12CF601108288818F7788838881806817
:10085000888388818F7D888319BC10928A041092C6
:100860008B04109289041092880490EEE92EF12CEA
:10087000F70180818B7F808388818160888342E05B
:1008800060E080E00E94CE03F60180818E7F80834D
:10089000F801808181608083808188608083F70196
:1008A00080818E7F8083888180618883CDB7DEB729
:1008B000E8E00C94EC32FC01809192049091930456
:1008C00086179707A0F06115710529F49091E8004B
:1008D0009E779093E80090E06115710551F49111B5
:1008E00008C08091E80082FF34C080E00895BC0118
:1008F000F2CF80918A048823C1F18530C1F18091C3
:10090000E80083FD30C08091E80082FDEACF80914D
:10091000E80080FFE1CF8091F3002091F200382FB2
:100920006115710519F02830310558F091E0283033
:10093000310509F090E02091E8002E772093E8003F
:10094000CBCF81918093F100615071092F5F3F4FB0
:10095000E7CF80918A04882341F0853041F080916F
:10096000E80083FFBECF81E0089582E0089583E030
:10097000089580917F04089587E797E79093010891
:100980008093000888E19AE00FB6F894A8958093C8
:1009900060000FBE90936000FFCF9C014FB7F894AA
:1009A0008091790490917A04A0917B04B0917C04A9
:1009B0004FBF821B930B08952FB7F8946091790471
:1009C00070917A0480917B0490917C042FBF0895EC
:1009D0002FB7F8948091790490917A04A0917B04C8
:1009E000B0917C042FBF0895A3E0B0E0EAEFF4E0FB
:1009F0000C94D63220917604309177042817390769
:100A0000A1F09093770480937604E0917404F091C0
:100A10007504309751F024E029839B838A830680F4
:100A2000F781E02DCE01019609952396E2E00C9422
:100A3000F232A3E0B0E0EFE1F5E00C94D632209181
:100A400072043091730428173907A1F0909373044E
:100A500080937204E0917404F0917504309751F022
:100A600023E029839B838A830680F781E02DCE01D2
:100A7000019609952396E2E00C94F232E091740419
:100A8000F0917504309729F00190F081E02D0995DF
:100A9000089580E008954115510511F0FA01099576
:100AA0000895CF93DF93EC01409162045091630469
:100AB00060916404709165042FB7F8948091790473
:100AC00090917A04A0917B04B0917C042FBF841B89
:100AD000950BA60BB70B843F9140A105B10518F506
:100AE0008091620490916304A0916404B0916504C4
:100AF00080935E0490935F04A0936004B0936104BC
:100B000084EF91E0A0E0B0E080935A0490935B04FE
:100B1000A0935C04B0935D04D0936A04C09369040D
:100B2000DF91CF9108950E94DC0460935E0470937E
:100B30005F04809360049093610482E390E0A0E0FE
:100B4000B0E0E2CFFC018481862351F492819923A5
:100B5000B9F06923808583FF05C081E061110FC072
:100B600080E00895892F8F7092959F70982B862F23
:100B70008F7062956F70682B81E09613F1CF0895A6
:100B800081E0FDCFDC016091540480915504962FE3
:100B9000891301C00895292F30E0F901EE0FFF1FDE
:100BA000E45BFB4F408151814A175B07A1F487E06A
:100BB0008A9FA0018B9F500D112445555C4F81E009
:100BC000FA0184839613E6CF2F5F3F4F23703327BC
:100BD0002093540408952F5F3F4F922F9370D8CFE6
:100BE0001092A9031092A803EBEAF3E0858181112A
:100BF00002C014821682379683E0E33EF807B1F70D
:100C00000895B0E0A0E0E7E0F6E00C94CE328FEF7C
:100C10009FEF4430510508F469C040915D0341FBEA
:100C2000882780F990E0880F991F42FB002700F980
:100C300010E0000F111F000F111F802B912B40FBA4
:100C4000CC24C0F8D12C8C299D2943FB222720F9E4
:100C5000C22FE0E0DE2F53E0CC0FDD1F5A95E1F705
:100C60008C2B9D2B44FBAA27A0F9B0E0E4E0AA0F4F
:100C7000BB1FEA95E1F78A2B9B2B45FBEE27E0F99A
:100C8000F0E0A5E0EE0FFF1FAA95E1F78E2B9F2B5A
:100C900046FB222720F930E0B6E0220F331FBA9539
:100CA000E1F7822B932B47FB222720F930E0369582
:100CB000322F222737952795822B932B20915E0385
:100CC000322F3170F32EE82EF92A26952170B22E9C
:100CD000BB0CA82EBF28C501BB0CAA0BBB0BFB018C
:100CE00080839183A283B38390E080E0CDB7DEB7A9
:100CF000EAE00C94EA32E0E8F3E0848195812AE0AE
:100D000030E0B9010E949132609310018681809396
:100D10000F01828580930E01848580930D01868565
:100D20009785B9010E94913260930C01808980936C
:100D30000B01828980930A018489809309010895B7
:100D4000809180039091810390931201809311010F
:100D50000895E2E0F2E090E080E06FE578E246E8B6
:100D600058E225ED37E277836683518740873387E2
:100D7000228797878687019670968830910599F724
:100D8000089581152CE7920741F420915804309181
:100D90005904232B11F490E080E008950E94E804A8
:100DA0009C019091EA018091EB01982B21F0309306
:100DB000E7012093E6019091EC018091ED01982BE1
:100DC00021F03093E5012093E401E0917404F09167
:100DD0007504309749F082E08093E8010480F58142
:100DE000E02D88EE91E0099508958091E30180FF60
:100DF0000CC060910A0170E07595679575956795CF
:100E00006115710549F1862F089581FF06C0609133
:100E10000A0170E075956795F3CF60910A0182FD34
:100E20000BC09091E2019923A1F06091090180919A
:100E30000A01961738F0682F70E06038710500F3EA
:100E40008FE70895899FC001112470E00E94A532A8
:100E5000F4CF61E070E0D7CF81E008958091E301A5
:100E6000609188037091890380FF16C020910E0164
:100E7000269FC001279F900D1124BC017695679590
:100E8000769567956038710508F043C06115710566
:100E900009F441C0862F089581FF0BC020910E01F7
:100EA000269FC001279F900D1124BC017695679560
:100EB000E9CF82FF09C080910E019B01829FB001A2
:100EC000839F700D1124DECF2091E1012223D1F206
:100ED00090910D0180910E01482F50E0291748F0A4
:100EE000CB01849FB001859F700D949F700D1124DC
:100EF000C9CF289F90011124269FA001279F500D44
:100F0000369F500D1124692F70E0CA010E94913262
:100F1000B9CF8FE7089581E00895282F35EB23039B
:100F2000C001112497FF04C080589109892F0895AA
:100F300080589F4FFBCF80E00895F894E82FE2950A
:100F4000EF70F0E031A1282F2F7081E090E001C018
:100F5000880F2A95EAF7982F9095932391A392A151
:100F6000892B82A37894089590915D0392FF10C01D
:100F700041E0282F2471243009F040E031E0282F8F
:100F80002871283009F030E0431711F02CE0822757
:100F900093FF10C041E0282F2471243109F040E074
:100FA00031E0282F2871283109F030E0431711F083
:100FB0002CE0822730915E0330FF10C051E0282FD3
:100FC0002171213009F050E041E0282F28712830AC
:100FD00009F040E0541711F029E0822731FF10C0DA
:100FE00041E0282F2171213109F040E031E0282F24
:100FF0002871283109F030E0431711F029E08227E9
:1010000094FD877E089582389105B9F1B0F481335B
:10101000910509F47DC048F48932910509F46DC049
:101020008A32910509F47BC008958533910509F44E
:101030005FC08933910509F10895833E9105D9F187
:1010400038F4803E910529F1823E910579F10895A9
:10105000863E9105D9F1873E910509F43EC0843E54
:10106000910541F520915E0321FF24C080915D032D
:1010700084FD19C087EE90E0089520915D032370F0
:1010800009F05AC020915E0323FF14C089E290E06A
:10109000089520915D0320FD38C030915E0330FF3C
:1010A00009C024FF43C090E080E0089520915D03D3
:1010B00022FDF7CF089520915D0322FD3AC03091C3
:1010C0005E0330FD39C024FFF5CFEDCF20915D03E5
:1010D00023FFF0CF24FDE7CFCDCF20915D0323FD8B
:1010E0002EC030915E0331FFEECF84EE90E0089584
:1010F00020915D0325FFDECFC9CF20915D0325FD43
:1011000021C020915E0323FFD5CF89E390E0D2CFA9
:1011100020915D0326FFCECF8AE290E008952091D2
:101120005D0326FFC7CF81E390E0089583EE90E052
:10113000089582EE90E0089580EE90E0089586EEA6
:1011400090E0089585E390E008951F93CF93DF9397
:101150000E940308EC01C11580E5D807F0F5C11520
:1011600080E4D80708F09CC0C03ED10520F5CD3CF6
:10117000D10508F082C0C83AD10578F4C53AD10546
:1011800008F073C0C130D10519F1209709F1C430BE
:10119000D105F0F4D0E0C0E01BC0C33CD105D0F7CE
:1011A000C85AD0E0CC0FDD1FCF5DDE4F0990D8814B
:1011B000C02DD4640DC0C11580E2D80708F0D1C09D
:1011C000C11581E0D80708F05AC0C83ED10510F714
:1011D000CE01DF91CF911F910895C03682E5D807E7
:1011E00018F5C03482E5D80708F06BC0C03282E53C
:1011F000D80708F05FC0C11582E5D80708F497C08A
:101200002C2F2695269580E2289F900111248C2F63
:101210008370C1E0D0E002C0CC0FDD1F8A95E2F7F9
:10122000C22BD32BDD68D4CFC03A82E5D80760F457
:10123000C03882E5D80708F459C0CF71D0E0DC2F60
:10124000CC27C46FD06AC4CFC03C82E5D80708F46D
:1012500062C0C03E82E5D80708F09CCFDC2FCC27C7
:10126000CC27DF71C06FD06AB3CFC55AD0E0C25E61
:10127000DE4FC881D0E0D064ABCFD065A9CF8D2F31
:101280000E94B407182FCE0199270E940308C12F8E
:10129000D0E0DC2FCC27CC27DF71C82BD92B98CFFF
:1012A000CE0199270E940308CC27DF70C82BD92BC9
:1012B000D06A8ECFCF71D0E0DC2FCC27C16FD06A3F
:1012C00087CF2C2F26952695277080E2289F9001A6
:1012D00011248C2F8370C1E0D0E002C0CC0FDD1F41
:1012E0008A95E2F7C22BD32BDC6872CF2C2F269580
:1012F0002695277080E2289F900111248C2F8370FF
:10130000C1E0D0E002C0CC0FDD1F8A95E2F7C22B0E
:10131000D32BDA685DCF8C2F8F710E94B407C82F52
:10132000D0E0DC2FCC27CC27DF71D06251CF8C2FBF
:101330008F710E94B40755E0D695C7955A95E1F78D
:10134000CF70D0E0DC2FCC27282F30E084FF05C001
:1013500044E0220F331F4A95E1F7C22BD32BD0690B
:1013600037CF8D2F8F710E94B407182FCE01992788
:101370000E940308C12FD0E0DC2FCC27CC27DF71DF
:10138000C82BD92BD2CF8091AE01882331F0109297
:10139000AE011092AD011092AC010895CF93C82F09
:1013A00080915E0382FF0CC08091AE018C1741F0EA
:1013B0000E94E8049093AD018093AC01C093AE010C
:1013C000CF9108959091AE01292F282361F0809547
:1013D00089238093AE01882339F00E94E80490931A
:1013E000AD018093AC01089590E080E0F8CF809546
:1013F0009091DE0498239093DE0408958095909157
:101400005F03982390935F03089590915F03892B66
:1014100080935F0308951092A3011092A20110928D
:10142000A10108958091820390918303892B89F013
:101430000E94E8042091AC013091AD01AC01421B47
:10144000530B81E0209182033091830342175307AD
:1014500008F480E0817008959091A001292F28233D
:1014600021F0809589238093A0010895EAE7F1E0B7
:101470009191891303C0DF0111971C9291E0E0382C
:10148000F907B1F70895AAE7B1E0EFEF90E02D91E9
:10149000821751F0EF3F19F4211101C0E92F9F5F2E
:1014A0009630A9F7EF3F09F408950E2E000CFF0BBC
:1014B000E858FE4F828308958091DD049091940452
:1014C000981301C008958F5F8770FACF292F943049
:1014D00078F58C3068F590E03CE0239F800D911DFD
:1014E0001124682F677023E0969587952A95E1F778
:1014F000FC01EE0FFF1FE80FF91FEB57FE4F50E006
:1015000040E080E0219130E0062E02C0369527951C
:101510000A94E2F721703327042E01C0220F0A94A7
:10152000EAF7822B4F5F5F4F4330510559F708951B
:1015300080E00895292F943098F58C3088F590E05C
:101540003CE0239F800D911D1124282F277041E03E
:1015500001C0440F2A95EAF723E0969587952A95CE
:10156000E1F7FC01EE0FFF1FE80FF91FEB57FE4FED
:1015700030E020E070E05191DF011197CB01022EA5
:1015800002C0969587950A94E2F781708195852728
:10159000842385278C932F5F3F4F2330310559F7E4
:1015A00008958093BD0108959091BD0121E030E040
:1015B000F90101C0EE0F8A95EAF7D90102C0AA0F1E
:1015C000BB1F6A95E2F7EA2B01C0220F4A95EAF7A2
:1015D000892F8E23E81305C0292B822F0E94D10A60
:1015E000089520952923F9CF21E030E001C0220F92
:1015F0008A95EAF720958091BD0182230E94D10A45
:1016000008959091A301809589238093A301282FA9
:10161000277069F4891759F090915E0392FF07C013
:101620008695869586950E94F40A0E940B0A089575
:1016300021E030E001C0220F8A95EAF78091BD01D8
:10164000822B0E94D10A089590915E0392FF10C0F0
:1016500098E0899F90011124622B6093A3010E945E
:10166000180B0E94E8049093A2018093A1010895B1
:101670000E94180B08958093BC01089592959F7065
:10168000963091F058F4925F9F70923058F4803FFA
:1016900019F030F4883E30F481E008959A5FF4CF79
:1016A000843FD1F380E00895883EB0F3813FD1F7C5
:1016B000F3CF662309F45DC08D3C41F40E942E07F0
:1016C00081958093EB010E94CE0608958E3C19F41B
:1016D0000E942E07F6CF8F3C31F40E942E07819591
:1016E0008093EA01F0CF803D19F40E942E07F8CFD5
:1016F000893D29F40E94F5068093EC01E4CF8A3DF0
:1017000021F40E94F5068195F7CF8B3D31F40E94BC
:10171000F50681958093ED01D6CF8C3D19F40E949A
:10172000F506F8CF9FE2980F983070F4815D990B21
:1017300021E030E001C0220F8A95EAF78091E901AB
:10174000822B8093E901BFCF8D3D31F48091E3017D
:1017500081608093E301B7CF8E3D21F48091E30156
:101760008260F7CF8F3D09F0AECF8091E3018460B6
:10177000F0CF4091EA018D3C59F48091EB0187FF55
:101780000DC01092EB0141110BC01092E10108C095
:101790008E3C81F48091EB0118169CF3442381F078
:1017A0008091EC019091ED01892B09F08CCF109282
:1017B000E20189CF8F3C49F447FFF0CF1092EA0154
:1017C0008091EB018111ECCFE0CF803D19F414162C
:1017D000ACF3E4CF9091EC01893D29F41916F4F6AD
:1017E0001092EC01DBCF8A3D19F497FFD7CFF8CFE9
:1017F0009091ED018B3D29F497FFD0CF1092ED0130
:10180000CDCF8C3D19F41916CCF3C8CF9FE2980FB9
:10181000983090F4815D990B21E030E0B90102C06D
:10182000660F771F8A95E2F7CB0180959091E901C9
:1018300089238093E901B2CF8D3D31F48091E3019A
:101840008E7F8093E301AACF8E3D21F48091E30146
:101850008D7FF7CF8F3D09F0A1CF8091E3018B7F82
:10186000F0CF9C013A9521153F4150F5FC01EE2740
:10187000F170BC0166277270AC01442754709C0162
:101880002227387094FF0EC080E1EF2B09F480E02E
:10189000672B09F08062452B09F08064232B89F0C7
:1018A0008068089581E0EF2B09F480E0672B09F050
:1018B0008260452B09F08460232B19F0886008951D
:1018C00080E008950F931F93CF93DF938B01EA017C
:1018D00090918A04943061F58093E9008FEF9091A4
:1018E000E800815095FD06C095ED9A95F1F700004E
:1018F0008111F5CF8091E80085FF1AC00E947E0318
:10190000811111C08091E80085FD06C08091E8003A
:101910008E778093E800F2CFF80181918F01809358
:10192000F100219779F78091E8008E778093E800A5
:10193000DF91CF911F910F91089543E050E0BC01DA
:1019400084E00E94620C089546E050E0BC0184E00F
:101950000E94620C0895CF93DF93EC0148E050E0C1
:10196000BC0181E00E94620C88E0FE01A0E8B4E0C6
:1019700001900D928A95E1F7DF91CF91089501973B
:1019800008F40895EFE9FFE03197F1F700C0000097
:10199000F6CFCF93DF93CDEBD2E060E0CE010E9493
:1019A00051332196C11584E0D807B9F7DF91CF9163
:1019B00008951F93CF93DF93122F8430E0F46430A7
:1019C000D0F44C30C0F4C42FD0E0CC0FDD1F98E130
:1019D000699FC00DD11D112490E6899FC00DD11DB6
:1019E0001124632FCE0189960E945133612FCE01BD
:1019F0008A960E945133DF91CF911F910895CF9322
:101A0000C82F6FEF811161E885E290E00E945133A9
:101A10006FEFC11168E986E290E00E9451336FEFE9
:101A2000C11166E687E290E00E945133CF9108959C
:101A30009B01883070F49AE0899FB00111246353B0
:101A40007E4F4AE050E0C9010E94233390E080E0DD
:101A500008958FEF9FEF0895AAE0B0E0E2E3FDE084
:101A60000C94D6329C0137552F3F310509F068F4AC
:101A7000BE016F5F7F4F0E94180D892B31F489855D
:101A80009A852A96E2E00C94F23280919803909124
:101A90009903F7CF0F931F93CF93DF93843030F5E3
:101AA000643020F54C3010F5C42FD0E0CC0FDD1F92
:101AB00028E1629FC00DD11D112430E6839FC00D27
:101AC000D11D1124CE0189960E943333082F10E0D6
:101AD000102F0027CE018A960E9433339801282BBD
:101AE000C901DF91CF911F910F91089590E080E09F
:101AF000F8CF462F2091DF013091E001232B99F49C
:101B0000703F39F4603F79F48091EE019091EF01DC
:101B10000895743040F46C3030F4843020F4672F32
:101B20000E944A0D089590E080E00895CF92DF92E0
:101B3000FF920F931F93CF93DF936C010091BD0130
:101B40008091BC01082BC3E0D0E010E0FC2EC8015E
:101B50000C2E02C0959587950A94E2F780FD0CC083
:101B60002197A0F7F12C8F2DDF91CF911F910F912D
:101B7000FF90DF90CF900895B6018C2F0E94790DD1
:101B80000E94A508019761F3EECFCF93DF93EC019C
:101B90000E94960DBE010E94790D0E94A508DF915A
:101BA000CF910895FC018481882371F0878190850D
:101BB000009729F00E94A5080E943E0B089580819D
:101BC00091810E94C50DF8CF80E00895A6E0B0E0B5
:101BD000ECEEFDE00C94D53249835A8349815A8159
:101BE0009923A1F0222391F0CA010E94960D182F8B
:101BF000682F89819A810E949A0A69817A81812F4E
:101C00000E94790D2696E3E00C94F132CA010E94FD
:101C1000660A182FF2CFFC01262F87819085009746
:101C200041F44081518162817381848195810E9458
:101C3000E60D08950F931F93CF93DF9300E813E011
:101C4000C9EAD1E0CE010E943333F80161918F01DE
:101C5000681719F0CE010E9451332196CD3CF1E076
:101C6000DF0781F7DF91CF911F910F9108950F93B7
:101C70001F93CF93DF9300E813E0C9EAD1E0CE01D0
:101C80000E943333F80181938F012196CD3CF1E01E
:101C9000DF07A9F7CFE6D2E0FE0185919491009786
:101CA00011F0FC0109952C96F3E0CB36DF07A1F784
:101CB000DF91CF911F910F91089585E290E00E94EE
:101CC0003333813889F486E290E00E9433338839D7
:101CD00059F487E290E00E94333391E0863609F0B0
:101CE00090E0892F8170089580E0FCCF90915E0391
:101CF00092FB222720F9281779F080FB92F9909324
:101D00005E0360915D0370915E0384E090E00E9449
:101D10006F3382E00E94010B0895DA019C012E5F6F
:101D20003F4FF90145915491F90125913491A21742
:101D3000B30758F0FC013496859194910E941333B7
:101D40000E941A0E90E080E008958FEF9FEF0895B3
:101D5000DB01FC013296259134914217530758F06C
:101D6000FC01349665917491A901CD010E94133351
:101D700090E080E008958FEF9FEF0895AAE0B0E033
:101D8000E4ECFEE00C94CC3205EE12E083EDC82EBC
:101D900082E0D82E9DE6E92E92E0F92E27E0922EE1
:101DA00032EDA32E32E0B32E88248394D6010D9316
:101DB0001D936D014AE050E0B701CE0101960E94EB
:101DC0002333F8013896DF01892D1D928A95E9F7B2
:101DD00089819A81D80111969C938E938F81129656
:101DE0008C9312978D8113968C93139788851496F4
:101DF0008C931497898515968C9315978B819C816C
:101E000017969C938E93169718961C9218978A850E
:101E100087FF3CC01E961C921E921D9780FF03C038
:101E2000D80118968C9281FF04C0F80190859260C9
:101E3000908782FF07C0D80118969C9118979460EC
:101E400018969C9383FF04C0F80190859860908752
:101E500084FF07C0D80118969C9118979061189636
:101E60009C9385FF04C0F801808580628087015FB4
:101E70001F4FFAE0EF0EF11C8DEBE81682E0F8063A
:101E800009F094CF2A96ECE00C94E832F801B6867B
:101E9000A586C4CFAAE0B0E0E0E5FFE00C94D03224
:101EA000E2E8F2E080E5DF011D928A95E9F7EBEACE
:101EB000F3E088E3DF011D928A95E9F782E8C82EF6
:101EC00082E0D82E7F010DE112E0F701D182C082BD
:101ED0004AE050E0B801CE0101960E94233388E029
:101EE000FE013196D60101900D928A95E1F7898520
:101EF0009A85D70113969C938E931297BAE0CB0ED6
:101F0000D11CE7E0EE0EF11C065F1F4F0D36F2E02C
:101F10001F07D9F62A96E8E00C94EC32A8E0B0E06E
:101F2000E4E9FFE00C94CC328E010F5F1F4F88E094
:101F3000F80111928A95E9F797E5E92E91E0F92EDB
:101F40006801AA24A394B12CF70181917F018F3FEE
:101F500009F446C0F894E82FE295EF70F0E021A173
:101F60008F70A50102C0440F551F8A95E2F7CA0180
:101F7000922F982B91A392A18095892382A3789484
:101F800000C0EBE5F1E021E030E0912C812C4191A3
:101F90004F3F09F467C0A42FA295AF70B0E09096B0
:101FA0008C9190E04F7002C0959587954A95E2F725
:101FB00080FD58C0C901882A992A220F331F51E099
:101FC000E736F50721F7F701319780818F3F11F050
:101FD0000E949D0780EA8A95F1F7F601918280823E
:101FE000F2E0CF0ED11C4BE5E41641E0F40609F017
:101FF000ABCF48E050E0B80184EB91E00E9406339B
:10200000892B99F188E0F801A4EBB1E001900D92E1
:102010008A95E1F781E08093B3010E94E8049093F0
:10202000B2018093B1018091B1019091B2010E94FF
:10203000CD040597F0F048E050E064EB71E087EDE7
:1020400091E00E940633892BC9F088E0E4EBF1E0CF
:10205000A7EDB1E001900D928A95E1F781E0109231
:10206000B30108C090E080E0A6CF8091B301811158
:10207000DACF80E02896ECE00C94E83280E0EFCFF5
:1020800080915F039091DE04892B80937801809189
:10209000AE01882309F18091820390918303892BFB
:1020A00029F00E94120A81110E94C30980917801CF
:1020B0009091AE01892B8093780120E08AE791E02E
:1020C000FC013191CF0131112F5FF1E080389F0782
:1020D000B9F721110E94C3098091660480959091FF
:1020E0007801892390916704892B8093780148E0D7
:1020F00050E064EA71E088E791E00E940633892BA2
:10210000A9F088E0E8E7F1E0A4EAB1E001900D92DF
:102110008A95E1F7E0917404F0917504309731F0FD
:102120000280F381E02D88E791E009950895CF932F
:10213000DF93EC014A855B856E857F850E944B05A8
:102140008B810E94F7098C810E94FE090E94401039
:1021500086E0FE0111928A95E9F7DF91CF9108950B
:10216000CF93DF93EC018D8181FD14C082608D835C
:102170008091DE049B81892B8093DE048C810E94F8
:10218000050A0E944010488559856E857F85CE01DD
:102190000E944B0510927104109270048D8180FD95
:1021A00003C0CE010E949710DF91CF9108958091D6
:1021B0001301877F8093130182E00E94F7098091C9
:1021C000130184FF06C08F7E8093130182E00E947A
:1021D000050A8091130185FF06C08F7D809313014E
:1021E00080E20E94050A0E9440100895CF93109249
:1021F0005F03C6E0EAE7F1E0DF018C2F1D928A95CC
:10220000E9F790E080E00E94190590E080E00E94EC
:10221000F4041092DE040E944010E8EEF1E0DF01C9
:102220001D92CA95E9F71092E1011092E201109215
:10223000E3010E94CE06CF910895AAE2B0E0E3E266
:10224000F1E10C94D5328CE894E02091F100DC01AE
:102250002D93CD01B4E084399B07B9F780918D04AB
:10226000833009F472C0B8F4813009F449C0823077
:1022700009F4B3C08091E80083FF96C280918C047A
:1022800090918D049A3008F08FC2E92FF0E0E15769
:10229000FC4C0C94B9328A3009F48EC08B3009F4AE
:1022A00071C0893039F780918C04813219F780919F
:1022B000900490919104009711F00297D9F68091C3
:1022C000E800877F8093E8008091E80082FF38C0B3
:1022D0009091F3008091F200029731F48091F10027
:1022E000813011F0863021F48091F10080937F04D9
:1022F0008091E8008B778093E8000E94AF03BACF0B
:1023000080918C04813A09F0B5CF8091E800877FF5
:102310008093E8008091900490919104892B61F45E
:1023200068E080E894E070E00E945B048091E8003F
:102330008B778093E8009ECF60E090E080E0F3CF61
:1023400080918A048111C0CF95CF80918C04813A0D
:1023500009F090CF8091900490919104892B09F01D
:1023600089CF8091E800877F8093E8008091E80022
:1023700080FFFCCF809115018093F1008091E800EF
:102380008E77B9CF80918C04813209F073CF809120
:10239000900490919104892B09F06CCF8091E80012
:1023A000877F8093E8000E94AF0380918E04809322
:1023B00015010E94F6105ECF80918C04813209F0E5
:1023C00059CF8091E800877F8093E8000E94AF0397
:1023D00080918F0480937E044DCF80918C04813A4C
:1023E00009F048CF8091E800877F8093E8008091D2
:1023F000E80080FFFCCF80917E04BECF803899F04A
:10240000823809F0D1C1809190048F70873008F034
:10241000CBC18093E9008091EB0085FB882780F990
:102420001092E90006C0809188049091890491116E
:1024300082609091E800977F9093E8008093F1008C
:102440001092F1008091E8008E77AAC1882309F4E8
:1024500098C1823009F0A8C180918E0481119BC17E
:10246000809190048F702FEF280F263008F09CC1C8
:102470008093E9002091EB0020FF8DC1933031F46F
:102480008091EB0080628093EB0085C19091EB001E
:1024900090619093EB0021E030E001C0220F8A951B
:1024A000EAF72093EA001092EA008091EB0088603E
:1024B000EACF811179C110918E041F778091E300DA
:1024C0008078812B8093E3008091E800877F809360
:1024D000E8000E94AF038091E80080FFFCCF80916C
:1024E000E30080688093E30082E0111183E0809331
:1024F0008A045AC18058823008F056C120918E0457
:1025000030918F042C3DE3E03E07A1F583E08A8300
:102510008AE289834FB7F894DE01139620E03EE00B
:1025200051E2E32FF0E050935700E49120FF03C005
:10253000E295EF703F5FEF708E2F90E0EA30C0F0D1
:10254000C7968D939D932F5F243159F74FBF80918C
:10255000E800877F8093E8006AE270E0CE01019690
:102560000E945B048091E8008B778093E8001CC197
:10257000C096E7CF8091900490919104432F552706
:102580004330510509F44AC078F54130510509F44A
:1025900085C08BE590E0E1EEF4E04230510509F0B2
:1025A00003C12091E800277F2093E8002091920446
:1025B000309193048217930708F49C0140E02115A1
:1025C000310509F070C041116EC08091E80082FDB4
:1025D000C9CF80918A04882329F2853019F280912D
:1025E000E80083FFF2CFBECF4132510509F447C066
:1025F0004232510509F0D8C08330910508F0D4C0AB
:10260000FC01EE0FFF1FE659FE4F0190F081E02D17
:1026100089599E4FDC018C9190E01DC033272130F9
:102620003105E9F02115310579F022303105F9F055
:102630002330310509F0B8C0EEE4F5E0E4918E2FC7
:1026400090E0EEE4F5E007C0EEE8F5E0E4918E2FCF
:1026500090E0EEE8F5E0009709F4A6C0A2CFE8E725
:10266000F5E0E4918E2F90E0E8E7F5E0F4CFECE6BA
:10267000F5E0E4918E2F90E0ECE6F5E0ECCF8330CE
:10268000910508F091C0880F991FFC01E059FE4F99
:102690000190F081E02D89E090E083CF82E190E02D
:1026A000ECE3F5E07ECF80918A04882309F45ACFC9
:1026B000853009F457CF8091E80083FD53CF809196
:1026C000E80082FD82CF8091E80080FF78CF909172
:1026D000F3008091F2002115310519F08830910541
:1026E00050F041E0089709F040E08091E8008E77D3
:1026F0008093E80064CF44914093F10031962150DB
:1027000031090196E8CF803809F04EC08091E80089
:10271000877F8093E80080918B048093F10092CEB4
:10272000811142C010918E041230F0F58091E800C2
:10273000877F8093E80010938B040E94AF031123DE
:1027400011F084E005C08091E30087FDFACF81E0BD
:1027500080938A0442E061EC81E00E94CE0342E271
:1027600061EC84E00E94CE0342E261EC82E00E94D0
:10277000CE0342E260EC83E00E94CE0380918A04A3
:1027800013C080918E04813079F481E0933009F098
:1027900080E0809389041092E9008091E800877FAF
:1027A0008093E8000E94AF038091E80083FF0AC095
:1027B0008091E800877F8093E8008091EB00806241
:1027C0008093EB00AA96E3E00C94F132E0E8F3E0AA
:1027D000128E138E8FEA90E09183808325E0248F00
:1027E00088E893E1938382838AE090E095838483F1
:1027F00044E150E05783468348E050E051874087EA
:10280000938782876EE170E07587648797878687F4
:1028100080E590E0918B808B538B428B48E250E0B7
:10282000558B448B42E350E0578B468B48EC50E08D
:10283000518F408F158E178E168E91A380A322A3E1
:102840000E941A0E0E94F61010925E0310925D0311
:10285000EEE5F3E080818460808360915D03709198
:102860005E0384E090E00E946F330E94370E08956B
:10287000AEE1B0E0EEE3F4E10C94CB32A09058046A
:10288000B090590481E090E09093590480935804EB
:1028900081E6C82E83E0D82E00E0760110E015C056
:1028A000F40125913491472D612F802F0E94D90C7E
:1028B00082E0880E911C7394ECE07E12F1CFF8E177
:1028C000EF0EF11C1F5F143019F04701712CE8CF97
:1028D0000F5F80E6C80ED11C0430F9F60E94E613A3
:1028E0001A8219821C821B821E821D8218861F82F8
:1028F00088EC90E09A8789870DEC11E04AE050E07F
:10290000B801CE0101960E947533065F1F4F0D314D
:10291000E2E01E0799F77E01FBE0EF0EF11C8AE072
:10292000F70111928A95E9F74AE050E0B801C70132
:102930000E947533065F1F4F0D36F2E01F07A1F7A7
:102940007E0185E1E80EF11C8AE0F70111928A957B
:10295000E9F78FEF9FEF9A8F898F87E08E8F4AE09C
:1029600050E0B801C7010E947533065F1F4F0D3B51
:10297000F2E01F07A1F7B0925904A09258046E9696
:10298000EDE00C94E73280E00E94FF0C60E088E20A
:1029900090E00E9451330E9438140E94C90C81E0DB
:1029A0000E94FF0C0895CF92DF92EF92FF928FEF7B
:1029B0009FEF4430510508F46CC0FB01C080D1800A
:1029C000E280F3800E94F61080915D03C0FA80F9E6
:1029D000B701A601769567955795479540FB81F914
:1029E000B701A60122E076956795579547952A95F8
:1029F000D1F740FB82F9B701A60133E076956795E0
:102A0000579547953A95D1F740FB83F9B701A60151
:102A1000E4E07695679557954795EA95D1F740FBA1
:102A200084F9B701A601F5E0769567955795479526
:102A3000FA95D1F740FB85F9B701A601A6E0769596
:102A4000679557954795AA95D1F740FB86F9B70149
:102A5000A601B7E07695679557954795BA95D1F752
:102A600040FB87F980935D0380915E03D0FA80F983
:102A7000D1FACC24C0F8C0FA81F980935E0360914A
:102A80005D0370915E0384E090E00E946F3390E0FC
:102A900080E0FF90EF90DF90CF9008950E94F610B5
:102AA0002FEF84E39CE0215080409040E1F700C08C
:102AB000000088E19AE00FB6F894A8958093600032
:102AC0000FBE90936000FFCF882321F00E94F7098A
:102AD0000E9440100895882339F09091DE04982BCD
:102AE0009093DE040E9440100895882321F00E94F4
:102AF000FE090E9440100895882321F00E94050AD3
:102B00000E9440100895882309F456C0823879F451
:102B10000E943E0581FF50C089E30E94430A0E9443
:102B2000401089E30E94360A0E94401008958338BD
:102B300059F40E943E0580FF3FC083E50E94430A8E
:102B40000E94401083E5EECF843859F40E943E0580
:102B500082FF32C087E40E94430A0E94401087E44B
:102B6000E1CF9CEF980F913AE8F290E2980F9830FD
:102B700050F4877091E001C0990F8A95EAF7892F88
:102B80000E94FE09D1CF9BE5980F933028F490E086
:102B900080E00E941905089598E5980F9B3128F46C
:102BA00090E080E00E94F404089593E3980F93313D
:102BB00018F460E00E94590B0895FF920F931F9341
:102BC000CF93DF93F82E00916B0410916C040115E4
:102BD000110509F449C010926A0410926904109218
:102BE000660410926704D8011696CD91DC919E017F
:102BF0003A9521153F4108F4D07ED1E0C11101C0C2
:102C0000D0E0D8011996ED91FC911A97309731F0E8
:102C10001B966D917C9180E00995D823DD2339F0D6
:102C20008CEF8C0F813A30F58C2F0E94360AFF20F2
:102C300099F0E0916B04F0916C04808584FD0CC0E8
:102C400080916804882341F0808191819C0121500A
:102C500031092F333E47A0F00E94401010926C04BF
:102C600010926B0410926804C801CDB7DEB7E5E09E
:102C70000C94EF320E9440108C2F0E948315D7CF06
:102C80000E945105E9CFCF93DF93EC010E94831599
:102C9000CE010E94310C9E01205E310928303105A1
:102CA00010F0CD2B29F40E947515DF91CF91089576
:102CB0000E946415FACFCF93C82F8823C9F08238B9
:102CC000C9F40E943E0581FD13C089E30E94430AB6
:102CD0000E9440102FEF87EE93E0215080409040FB
:102CE000E1F700C0000089E30E94360A0E9440100C
:102CF000CF9108958338A1F40E943E0580FDF8CF5E
:102D000083E50E94430A0E9440102FEF81EE94E079
:102D1000215080409040E1F700C0000083E5E4CFFF
:102D20008438A1F40E943E0582FDE2CF87E40E9430
:102D3000430A0E9440102FEF81EE94E02150804022
:102D40009040E1F700C0000087E4CECF8CEF8C0FFD
:102D5000813A70F4EAE7F1E080E891E02191C2174E
:102D6000C1F18E179F07D1F78C2F0E94430ABECF67
:102D700080E28C0F883048F4C77081E001C0880F72
:102D8000CA95EAF70E94050AB1CFEBE5EC0FE330F4
:102D900040F4F0E0E25EFE4F808190E00E94190571
:102DA000A7CFE8E5EC0FEB3150F4F0E0EE0FFF1F9A
:102DB000EF5DFE4F808191810E94F40499CF83E3FF
:102DC0008C0F833108F094CF61E08C2F0E94590B57
:102DD0008FCF8C2F0E94360A0E944010C5CF1F93C0
:102DE000CF93DF93182FC091A003D091A103893313
:102DF00021F0C0919E03D0919F03812F0E945B160A
:102E0000209739F4812F0E948315DF91CF911F9174
:102E100008958FE99FE00197F1F700C00000219726
:102E2000EFCFB0E0A0E0E7E1F7E10C94CE32EC01A7
:102E30008AE0A82E2881222309F48FC02130C9F509
:102E400099818A81913021F422960E94EF1605C063
:102E5000923029F422960E945B162196EBCF933094
:102E600021F422960E948315F8CF943011F0219618
:102E7000F4CF229630E020E0AE014F5F5F4F8053E9
:102E8000990B8A30910550F02150310930F38FE9C8
:102E90009FE00197F1F700C00000F6CFA29EB001BD
:102EA000A39E700D11249C01260F371F8981EA0112
:102EB000E3CFE22FF0E0EE53FA4FB490822F8695E5
:102EC0008695869590E0FC01EE54FA4FE4902770C9
:102ED000F12C022E02C0F594E7940A94E2F731E057
:102EE000E322FF24FC01EE55FA4FC490D12C022EB0
:102EF00002C0D594C7940A94E2F731E0C322DD24DE
:102F0000FC01EE56FA4F049110E002C015950795AA
:102F10002A95E2F701701127E114F10419F081EE0E
:102F20000E945B16C114D10419F086EE0E945B1654
:102F30008B2D0E94EF16C114D10419F086EE0E9469
:102F40008315E114F10419F081EE0E948315011537
:102F5000110509F482CF8CE278CFCDB7DEB7EAE075
:102F60000C94EA32B0E0A0E0E8EBF7E10C94CE324A
:102F70007C015B01C42FD22FFC0185818823A9F03D
:102F800040936F040E94E80490936E0480936D0454
:102F9000C77081E001C0880FCA95EAF70E947C15CE
:102FA000CDB7DEB7EAE00C94EA3210916F04141347
:102FB00038C080916D0490916E040E94CD046C0124
:102FC000B701C5010E942C0DC816D90650F5C0E204
:102FD000CD0F1D17C1F080E2810F883048F41770C3
:102FE00081E0012E01C0880F0A94EAF70E9475154E
:102FF000C83048F481E09D2F977001C0880F9A95E2
:10300000EAF70E947C15802F0E94EF16C83040F628
:10301000D77081E001C0880FDA95EAF70E94751534
:10302000BFCFC77081E001C0880FCA95EAF7F6CF1D
:10303000CF93DF93EC010E94310C9E01205E310999
:103040002830310510F0209741F40E947C158C2F18
:103050000E945B16DF91CF9108950E946B15F7CF08
:10306000662329F02091DE0422602093DE049C0177
:1030700030522115304308F499270E9418180895FA
:10308000B0E0A0E0E6E4F8E10C94D0326C018B01F2
:10309000E42E8091130182FF87C0C091A603D091D6
:1030A000A703CC15DD0521F0C114D10409F07CC0C3
:1030B000809113018B7F8093130181FD6EC08091FD
:1030C000A4039091A503A801481B590B81E020910E
:1030D0001101309112014217530708F480E081700A
:1030E000F82E80911301F0FA81F980931301FE010B
:1030F00083E0F695E7958A95E1F7EE71FF27E05AB0
:10310000FC4F20813181AE014F70552781E090E066
:1031100002C0880F991F4A95E2F7FF2009F43FC0CB
:10312000822B932B9183808380915F0381FF08C062
:103130008091130180618093130182E00E94FE0957
:1031400080915F0385FF08C08091130180628093A6
:10315000130180E20E94FE096F2DCE010E943018FB
:10316000EE2031F080919B0385FF02C086FF30C0C6
:1031700080919E0390919F030E94BF0C8091A603B3
:103180009091A7039C0130522115304308F49927F0
:103190000E9443160E94D71017C081E0A0CF8095EF
:1031A000909582239323BECFC60190528115904300
:1031B000A0F4C60199270E9443168091A60390911E
:1031C000A7038C159D0531F31093A5030093A40369
:1031D000CDB7DEB7E8E00C94EC32C601ECCFA7E047
:1031E000B0E0E5EFF8E10C94C6327C01DC01149606
:1031F0008C91882309F457C161E0C7010E940B0E2E
:103200008C01F7018581882319F1809170049091D8
:1032100071040097E9F008171907D1F09927F4E035
:10322000880F991FFA95E1F7FC01E95FFD4F2081B6
:10323000246020838E5F9D4FDC010D931C930E94C0
:10324000B0101092DE0461E0C7010E940B0E8C01E9
:10325000F7018581882309F4B1C0C80197578038E8
:10326000910508F0DEC0D02EFFE0F01708F40BC186
:103270008FEF93E00E943333811105C10DEB12E013
:10328000D11036C019821A821B821C8299249A940A
:1032900068013FEFC31AD30AC8010E943333898300
:1032A0001A82882309F4EFC0813009F081C05801E7
:1032B00042E0A40EB11CC6010E943333C82E8A839B
:1032C000882309F4E0C0C5010E943333D82E8FEF64
:1032D0008C0D8330D8F4580153E0A50EB11CDB826D
:1032E000DD2021F0CE0101960E9411178501D0CF7B
:1032F000011524E0120709F4C6C0C8010E94333347
:10330000811101C0DA940F5F1F4FBACF8BEF8C0D84
:10331000833030F5C8010396DB825C01DD2031F398
:103320005801A4E0AA0EB11C0E9433338C83882379
:10333000E9F28B819C818130BFEF9B0710F0982FC1
:103340008827E6E0CE1631F0F7E0CF1631F00E9484
:103350004E28CCCF0E942928C9CF0E94B027C6CFC3
:1033600024E0C212C3CF580134E0A30EB11CC8013F
:1033700003960E943333DD2009F485C0882309F4C5
:1033800082C08150990B989E9001999E300D112416
:103390004D2D4150550BCA01820F931F019708F420
:1033A000A5CFAFE9BFE01197F1F700C00000F6CF5D
:1033B000CE0101960E941117560198CF6801E7E5EA
:1033C000DE1AFFEFCF16D10409F058F568EF71E06F
:1033D0008C2D0E94180D892B21F5C60174E0880FF1
:1033E000991F7A95E1F7FC01EE5FFD4F22812130B4
:1033F000A1F52091F8013091F901232B91F0209152
:10340000FA013091FB01232B61F02091FC013091F6
:10341000FD014091FE015091FF01242B352B232B00
:1034200021F1D70115965C90552009F440C00E3566
:10343000BCE71B0729F10F35ECE71E0741F00D35FE
:10344000FCE71F07A1F5809100018823C9F01092C5
:10345000000180E00E94DD1516C0223011F7209196
:10346000FC013091FD01232BE1F2FC01E95FFD4FEE
:1034700020812E7F20838E5F9D4F0E94B010D1CF80
:1034800081E0809300018091A301877061F0D701F2
:1034900015968C91882339F080915E0382FF03C0DA
:1034A00082E00E94010B2796E2E10C94E2328091C7
:1034B0000001882309F468C6480120EE821A9108A9
:1034C0004090AE018091A001482A80915F03482A74
:1034D00038E08316910408F086C0980127703327DE
:1034E00081E090E001C0880F2A95EAF7552009F4A1
:1034F00077C0482AD7018D919C910E94660A21E0ED
:1035000030E0390102C0660C771C8A95E2F7E09141
:103510006B04F0916C04FF83EE8320908001309067
:1035200081011D822D81E22FF0E0EE0FFF1FED5291
:10353000FD4FC080D180C114D10409F480C6411070
:1035400005C0D60112968C91811187C0F601838146
:1035500090E086219721892B09F47FC08085982FE0
:10356000977009F487E0F8E08F16910408F055C0D1
:10357000552009F44EC086958170882309F46DC0EA
:10358000D601AD90BC900A151B0519F4552009F41D
:1035900064C0EE81FF81CE16DF0609F45EC0D6015D
:1035A0001D96ED91FC91309721F08081882309F4DC
:1035B00054C0642DC6010E94A205882309F44DC0A1
:1035C0000A151B0509F0A3C60115110509F4A4C6C7
:1035D0005110A4C6A214B30409F03FC0512C9EC6DA
:1035E0008095482287CF552009F412C61093810197
:1035F000009380010E94DC04609362047093630472
:10360000809364049093650410926A041092690494
:1036100071CF82FB882780F9B0CF5520F1F08170FF
:10362000ACCF0E94831598C60497813A910548F45F
:103630008A2D0E94430A552009F4A6C50E94401015
:1036400022CF0E9440108FE39CE90197F1F700C060
:1036500000008A2D0E945B16EECF9D819F5F9D83A7
:1036600061CFFC01208131810217130709F085C564
:10367000511085C51092680480E00E94DD1584C554
:10368000902F812FC0C5F9014485558566857785C2
:10369000C9010E944B05D60115968C9181FFE3C5A7
:1036A000C6010E94971080917004909171040817D0
:1036B000190709F0D8C51092710410927004D3C58F
:1036C00090911301892F8E7F90FF81608093130169
:1036D0000E94D710F3C5809113018E7FF7CF8091A0
:1036E00013018F7E013E110531F0053E1105E9F40D
:1036F000809113018F7D809313018091130180FFCE
:1037000029C0D70115968C910832110570F50E313C
:10371000110508F07BC004301105C8F58823D1F0ED
:103720001092A7031092A60315C0C80190528115EC
:10373000904318F78091130182FF0CC080919D0384
:1037400081FD08C029EC31E040E0B60190E080E066
:103750000E944018F801E851FC47E730F10508F0F5
:10376000B7C5E756FC4C0C94B9320933110558F42F
:103770000D32110518F40B32110581F690919B035F
:1037800092FDCCCF08C004361105C1F3C7CF90918C
:103790009B0394FDC3CF882309F4A8C08091AE0198
:1037A00090915F03892B8D7FB1F11092A703109246
:1037B000A60380919B0381FD2EC0F80143E0F6959E
:1037C000E7954A95E1F7EE71FF27E05AFC4F980123
:1037D0002F70332781E090E002C0880F991F2A954F
:1037E000E2F7809590952081318182239323918304
:1037F000808360E0C8010E9430188091AE018D7F07
:103800000E94CE0982E00E94010B3DCE90919B0365
:1038100093FD84CFC0CF89E0F701A9ECB1E001901E
:103820000D928A95E1F71092CE011092CC01109280
:10383000CB018091A6039091A70308171907D1F532
:1038400020919B0325FF36C03091130131FF02C048
:1038500026FF30C02091A4033091A5035601A21A7F
:10386000B30AB7010E942C0DA816B90618F580916D
:103870005F0381FF08C08091130180618093130171
:1038800082E00E94FE0980915F0385FF08C080915D
:10389000130180628093130180E20E94FE0960910F
:1038A0001301669561708091A6039091A7030E9411
:1038B0003018E9CD8091AE0190915F03982B209153
:1038C000130191FB21F9209313018D7F0E94CE09F2
:1038D0001093A7030093A603D092A503C092A4035C
:1038E000809113018460809313018CCF970140E095
:1038F000B601C8010E944018C6CD06E221EE41EE95
:103900006AE17CE7C7010E94B217BDCD07E225EE50
:1039100045EE6BE17CE7F6CF06E221EE40EE68E192
:103920007CE7F0CF07E225EE44EE69E17CE7EACFE1
:1039300006E221EE42EE6CE17CE7E4CF07E225EE01
:1039400046EE6DE17CE7DECF08E221E045EE6EE178
:103950007CE7D8CF80915D03816080935D0395C043
:1039600080915E03886080935E038FC080915D03C9
:103970008260F3CF80915D038460EFCF80915D031F
:103980008860EBCF80915E038160EDCF80915E0314
:103990008260E9CF80915D038061DFCF80915D031C
:1039A0008062DBCF80915D038064D7CF0E94F610E8
:1039B00080915D038068D1CF80915D038C60CDCF15
:1039C00080915E038360CFCF80915D038E7FC5CFF2
:1039D00080915E03877FC7CF80915D038D7FBDCFD0
:1039E00080915D038B7FB9CF80915D03877FB5CFD9
:1039F00080915E038E7FB7CF80915E038D7FB3CFC2
:103A000080915D038F7EA9CF80915D038F7DA5CFCF
:103A100080915D038F7BA1CF0E94F61080915D03A2
:103A20008F779BCF80915D03837F97CF80915E03DB
:103A30008C7F99CF80915D0382FB992790F921E0DB
:103A4000922790FB82F990FB83F987CF80915E03E8
:103A5000982F909591708E7F892B90FB81F983CF61
:103A600090915D03892F8F7B96FF806476CF0E94B3
:103A7000F61090915D03892F97FB87F980586DCFE1
:103A800061E08EE090E00E94513360915D0370919F
:103A90005E0384E090E00E946F330E94F610F3CC46
:103AA00060E0EFCF90915D03892F8F7E94FF80615E
:103AB00054CF90915D03892F8E7F90FF81604DCF11
:103AC00090915E03892F877F93FF88604CCF0631EA
:103AD000FCE71F07A9F580915F03982F9A7A309130
:103AE0009A0330FF04C0482F447409F090E031FF7E
:103AF00004C0482F417109F090E032FF04C0482F04
:103B0000487809F090E033FF03C0827209F090E03A
:103B1000222361F081E0911101C080E08093820155
:103B200089E2911185E30E94430A88CD8091820148
:103B3000811104C089E20E94360A80CD85E3FBCF63
:103B400007373CE7130709F458C008374CE7140758
:103B500009F45EC0222381F003305CE7150709F405
:103B600077C008F05AC001159CE7190709F463C033
:103B700001301C4709F472C0F701878190850097D6
:103B800009F47AC00E94A508182F092FF701C580F3
:103B9000B680B2943FE0B3228091A3018770F1F028
:103BA000AC2CCC20E1F0892F807F803451F080E272
:103BB000810F883098F0B11004C0892F807E803248
:103BC00069F080915E0382FF09C082E00E94010BD0
:103BD0008091A3018770AA24A3948111A12C902E17
:103BE00092942FE09222FBE0F91508F4D5C0E92D5C
:103BF000F0E0E056FC4C0C94B93281E0222351F005
:103C00000E94180B43E062E081E00E94D40A3BCCA2
:103C100082E0F4CF0E94F40AF5CF0B35BCE71B0716
:103C200049F10C35ECE71E07D9F00A351C4709F0BD
:103C3000A3CF81E01CC00E94F6102FEF34E34CE0CC
:103C4000215030404040E1F700C000000E94BC0419
:103C50006FEF7FEF90E080E00E946F330E944E157F
:103C600080915E0382FB882780F991E089270E947A
:103C7000760E82CF80E0FBCF858100811181882381
:103C800069F0C8010E94960DD82E682FC8010E94C5
:103C90009A0AB8018D2D0E94790D74CFC8010E9437
:103CA000660AD82EF6CF202F2F70D22E802F807F3D
:103CB00019F0D29490EFD922CC20A9F0DD2059F050
:103CC00080E2810F883010F0111107C08D2D0E9405
:103CD000050A0E944010812F5DC08091DE04D82A21
:103CE000D092DE04F6CF812F0E948315DD2009F4E7
:103CF00053C080E2810F883010F0111104C08D2D67
:103D00000E94FE0903C08D2D0E94F7090E944010F9
:103D100043C0302F3F70D32E802F807F803219F028
:103D2000D29480EFD822112339F1113009F4B6C0B2
:103D3000CC2009F4C2C0BB2009F466C020E0D70142
:103D40004C9111965C91119712966C911297139663
:103D50007C91139714968C91149715969C910E94C0
:103D6000E60D80919D0381FDB6CFF701868180FF2E
:103D7000B2CF8F70868348C080915E0382FD40C0C1
:103D8000CC20C1F1DD2029F08D2D0E94050A0E9472
:103D9000401080E00E945B16A92DA850BB0B149721
:103DA00010F40E943E05812F902F0E943E0B81113E
:103DB000C4C11092840110928301AA20B1F08091B5
:103DC000A30180FD12C0D70115961C928695869599
:103DD00086950E94180BC7010E94EF188091A301DD
:103DE0008695869586950E94F40A60E0C7010E9438
:103DF0000B0E59CB80E00E948315DD2069F27FCF46
:103E0000CC2091F1B11004C08D2D0E947C15C4CF3F
:103E100041E0B41211C08090AE018D2D8821D816DA
:103E200009F4BACF0E94E8049093AD018093AC01ED
:103E3000D828D092AE01B0CF80919C03823008F494
:103E4000ABCFB812A9CF8D2D0E947C158D2D0E946D
:103E5000E2098091A0019D2D9823D91609F49CCFE9
:103E6000D82AD092A00198CFB1100AC08D2D0E94FF
:103E700075158D2D0E94E2098D2D0E942C0A8CCF84
:103E800080919C03823008F487CF51E0B51284CF33
:103E900080915F038D2109F47FCFE8CF8091A20349
:103EA000CC2021F08B1508F477CFAECFB81608F0F0
:103EB00073CF8D2D0E9475156FCFBB20D1F38091EC
:103EC000A0039091A103193321F080919E0390915A
:103ED0009F030E94BF0C812F0E9483155DCF802F0E
:103EE00086958695837069F0813009F055CF812FD2
:103EF000902F9370C11002C080E090E00E94F40403
:103F00004BCF812F902F9370C11002C080E090E0C2
:103F10000E94190541CF6C2D812F0E94590B3CCF77
:103F2000802F837091F5C11037CF412F4295469570
:103F30004770440F440F812F8F70042E01C0880FEB
:103F40000A94EAF7212F207114FF07C02FE030E018
:103F500001C0220F4A95EAF72095302F3695369505
:103F60003370323069F050F44091BC01313029F0A7
:103F7000822B84230E943B0B0FCF842B822BFACF02
:103F8000282B8091BC018227F5CF8695CC2011F09B
:103F9000802F8170882309F4FFCE412F42954695EA
:103FA0004770440F440F812F8F70042E01C0880F7B
:103FB0000A94EAF7212F207114FF07C02FE030E0A8
:103FC00001C0220F4A95EAF72095302F3695369595
:103FD0003370323069F050F44091BD01313029F036
:103FE000822B84230E94D10AD7CE842B822BFACF36
:103FF000282B8091BD018227F5CFF02FFF70DF2E97
:10400000CC2029F08F2F0E94180B812FFECE812FFC
:104010000E9475158D2D0E94F40ABECE123F89F1C3
:1040200060F4103FB9F0113F81F0CC2009F480C05A
:10403000B11051CE802F8F7128C0133F49F1143F2A
:10404000A1F780915E0382FD2FC0802F8F71CC205D
:1040500011F31BC08091A203CC2079F0B81608F0B0
:104060009BCE202F2F7181E090E001C0880F2A9510
:10407000EAF79091BD018927B5CF8B1508F48CCE56
:10408000F0CF802F8F71C110C6CF0E94180B84CE45
:1040900080E0CC2009F4A6CF81E0902F9F7101C071
:1040A000880F9A95EAF79ECF80919C03823040F169
:1040B000CC20D1F09091A3019770943041F40E94EC
:1040C0000B0A802F8F710E94F40AA12C65CEB816BE
:1040D000E0F7202F2F71D22E822F0E94180B63E061
:1040E0008D2D0E94240BF1CFB81630F00E940B0AE0
:1040F00064E0802F8F71F5CF81E00E94010BE5CF46
:10410000CC2059F0302F3F71D32E832F0E94180BF3
:1041100063E08D2D0E94240B3FCE81E00E94010BB5
:1041200041E04B1508F038CE82E00E94010B34CEFE
:10413000B110C5CE802F8F716ECFCC2019F0B11089
:1041400038CE3BCEB11035CE20E0F7014081518111
:1041500062817381848195810E94E60D80919D0327
:1041600083FF27CE8091830190918401029709F00B
:1041700020CE812F0E94EF161CCE552029F0DC01A5
:1041800018968C9185FF78CAC80197558F3F910585
:1041900011F008F068C0F801FF2754E0EE0FFF1F90
:1041A0005A95E1F79F012E5F3D4F6901D7011596A2
:1041B0008C91E95FFD4F908180FB90F9908388237B
:1041C00009F461CA0E94E8049093C8018093C70172
:1041D000F60182818F5F82838091DE0490915F037C
:1041E000892B83838091AE018483468157816685C4
:1041F0007785C6010E944B05D60115968C9181FFEB
:104200003FCA90E080E090937004809371042BC0CB
:1042100080918001909181010817190781F4109213
:104220008101109280011092620410926304109236
:1042300064041092650410926A04109269048091DB
:104240006B0490916C04009709F49ECFA8E08A1645
:10425000910408F006CA642D0E94A205811103C0D2
:1042600081E00E94DD1580919B0380FF73CA0E944C
:10427000E8046C01F7018581882309F430CA809134
:10428000130182FF08C029EC31E040E0B60190E064
:1042900080E00E9440180431FCE71F0709F41BCAA4
:1042A00005312CE7120709F40BCA03313CE7130769
:1042B00029F480911301816080931301C801905209
:1042C0008115904308F019CA1092A7031092A60313
:1042D000F7012581222309F4FACB10926F04C8015B
:1042E0009057839708F0F3CB84E090E00E943B3333
:1042F00090935E0380935D03F801E150F047E23252
:10430000F10508F027CBE455FC4C0C94B932A1140C
:10431000B10409F05FC9512CB12CA12C80E00E949E
:10432000DD15D0926C04C0926B0481E08093680428
:10433000F60185818093660451100EC0AB2861F0B0
:10434000F601808191819C0124503109213A310587
:1043500008F067C90E94360AD6011696AD90BC9047
:10436000C5019A9581159F4110F4E0EEBE22772495
:104370007394C50101978F339E4708F0712CD601C5
:104380001996ED91FC911A97309731F01B966D912B
:104390007C9181E009957822772079F0F601868179
:1043A00097810E94310C80936704C501F8E08F1655
:1043B000910408F039C90E9451050E9440103BC980
:1043C000B0E0A0E0E6EEF1E20C94D13280919D01E4
:1043D000807F09F054C080919C01882309F44FC06C
:1043E000E091DD0489E0D82E809194048E1709F4C1
:1043F00046C00E2F10E0ED9DF0011124EB56FB4F4F
:104400008481882309F440C0D09EE001D19ED00D64
:104410001124FE01EB56FB4F918180919801981376
:1044200033C090818091970198132EC085818111AE
:104430002BC0E280F3808091990190919A01E81A53
:10444000F90A60E087E991E00E940B0E67E971E0EC
:104450000E942C0DE816F906B8F480919D018F702A
:10446000806180939D01C556DB4F88818F7080618C
:10447000888387E991E00E94EF180E945C0ACDB71B
:10448000DEB7E7E00C94ED32F8013196E770ACCF7F
:10449000A8E1B0E0EEE4F2E20C94C9328C0186E0CF
:1044A000F801DE01539601900D928A95E1F7D8014B
:1044B00014967C9014971596EC9087E9A82E81E0CD
:1044C000B82E80919B0181112AC0711003C0FF2476
:1044D000F3941CC0EE20F9F0C8010E94D20DF82E12
:1044E0008823C9F089E0F801A7E9B1E001900D92B5
:1044F0008A95E1F780919B01813031F48091970199
:10450000909198010E94C50D0E94E0218F2D689620
:10451000EFE00C94E532C8010E94EF18D8CFF80103
:1045200050806180C280D38060E087E991E00E9482
:104530000B0EF0909C018091990190919A01460197
:10454000881A990A60E087E991E0FF2009F428C100
:104550000E940B0E67E971E00E942C0D88169906E7
:1045600008F0D1C0772009F4B2CF80919D01382F97
:10457000307F20919801D80111969C9111973111AB
:1045800071C029131FC0209197019C9129131AC053
:1045900040919E0150919F0117962D913C91421799
:1045A000530781F4E11054C08F70806180939D01A6
:1045B00087E991E00E94EF1880919D01F8018683C0
:1045C000F12CA4CFE11044C0662D852D0E9440033C
:1045D000E82E882381F080919D0380FFF1CF87E949
:1045E00091E00E94EF1889E0E7E9F1E0DF011D9218
:1045F0008A95E9F7E5CF5B8A6C8A8B899C890E9452
:10460000C50D292F22952F70243058F49F70223029
:1046100088F0992399F0F8019681907F79F4FE2C27
:1046200075CF2A5F2F70223068F0C8010E94EF1802
:10463000EF2CF5CF992311F0882389F3805E883021
:1046400070F3F3CF803F58F3815F833070F7E7CF8B
:1046500080919D01816080939D0180919D0381FDEA
:10466000AFCFBDCF291320C0209197019C91291372
:104670001BC040919E0150919F0117962D913C9136
:1046800018974217530781F4E1100EC016968C93C9
:10469000C8010E94EF1889E0F801A7E9B1E0019094
:1046A0000D928A95E1F732CFC8010E94D20D88237E
:1046B00009F431CFEE2009F42ECF80919D01803294
:1046C000B8F020919701309198013B872A87DD86C9
:1046D000CC8690919B019E871F86888B80919E013E
:1046E00090919F019A8B898BCE010A960E94EF18B8
:1046F00089E0F801A7E9B1E001900D928A95E1F710
:104700000E94E021E4CE80919D01982F907F09F4D2
:1047100066CF772009F4DBCE20919801F8019181D2
:1047200029131AC0209197019081291315C0409137
:104730009E0150919F01278130854217530761F4F4
:10474000E1100AC08683C8010E94EF1889E0D501F4
:104750001D928A95E9F7DACEC8010E94D20D88230E
:1047600009F4D9CEEE2009F4D6CE80919D01803295
:1047700008F4BECF20919701309198013A832983A4
:10478000DC82CB8290919B019D831E828F838091DE
:104790009E0190919F0199878887CE010196A6CFAF
:1047A0000E940B0E67E971E00E942C0D8816990695
:1047B00008F04AC0772009F48ACEFE2CEE2009F4D6
:1047C000AACE90919801F801818198132FC0909101
:1047D0009701808198132AC020919E0130919F01FA
:1047E000878190852817390709F580919901909163
:1047F0009A01C81AD90AF8ECCF16D10408F04BCFA9
:1048000090919D0190FD47CF907F09F444CF809116
:104810009D01D80116968C931697903F09F438CFD6
:10482000982F907F905F8F70892B30CFC8010E94A6
:10483000D20D81115DCF80919D01816080939D019A
:10484000C8010E94EF1862CE89E0F50111928A95A5
:10485000E9F75CCEA2E1B0E0E0E3F4E20C94D432FC
:104860000A871B872C873D874E875F87688B798BEC
:104870008A8BCE010A960E94482281110CC089E0E1
:10488000FE013A96DE01119601900D928A95E1F7AC
:104890008E8581110BC019E08091DD049091940404
:1048A000891331C06296E4E00C94F03220919404B4
:1048B00030E0C9010196877099274091DD044817BF
:1048C000190699F099E0929FD001939FB00D1124A1
:1048D000AB56BB4FFE01319601900D929A95E1F7D0
:1048E000809394040E945C0AD6CF0E94F610109226
:1048F00094041092DD0489E0E7E9F1E0DF011D9204
:104900008A95E9F7C8CF819FC00111248B569B4F30
:104910000E944822882331F28091DD0490E00196C4
:10492000877099278093DD04B7CFEF92FF920F93A2
:104930001F93CF93DF938091E303882361F0E0918D
:10494000AA038DE0F82E8091E303E81748F0109257
:10495000E3031092AA03CDB7DEB7E6E00C94EE3283
:10496000EE24E394EE0EE092AA03CE2FD0E0EF9D6A
:10497000F0011124EC51FC4F84818823E9F08781F8
:104980009085892B21F481859285019659F40081C7
:1049900011812281338144815581668177818085AF
:1049A0000E942A24FC9EF001FD9EF00D1124EC5182
:1049B000FC4F14821092DE04EE2DC5CF10925704E6
:1049C000109256041092140180915504809354045F
:1049D0000E94F0050E9495240895B0E0A0E0E3EF66
:1049E000F4E20C94C732C091540497E0992E01E090
:1049F00010E02DE0322E34E0432E55245394809164
:104A000055048C1309C00E9495240E94F005CDB76F
:104A1000DEB7E1E10C94E332D0E0FE01EE0FFF1FC0
:104A2000E45BFB4F80819181989ED001999EB00DEF
:104A30001124A555BC4F14962C911497211159C0DF
:104A40006090E303E4EEF3E030E020E0812C5D01D0
:104A5000261508F04CC0E384F484D501CD90DC9099
:104A60006FEF7FEF712C472D50E0DA01AA0FBB1FCB
:104A7000AC0DBD1D0D90BC91A02D109731F0EA1624
:104A8000FB0609F4BA017394EECF6F3F7607A9F1E4
:104A9000D80102C0AA0FBB1F6A95E2F78A2AB801A3
:104AA000072C02C0660F771F0A94E2F7AB01415052
:104AB00051098416150601F5329EF001339EF00D62
:104AC0001124EC51FC4F989ED001999EB00D1124F9
:104AD000A555BC4F12962D913C9113973087278393
:104AE0004482108211829287818715965C920E947F
:104AF000C2052196C37083CF14822F5F3F4F3D962E
:104B0000A7CFAEE1B0E0E7E8F5E20C94C6324B8BFC
:104B10005C8B6D8B7E8B8F8B988F882349F0809177
:104B20008301909184010196909384018093830185
:104B3000888D81111092DE04188A198A1A8A86E0FB
:104B4000FE017396DE011A9601900D928A95E1F7A7
:104B500080915E0382FF1EC0809182039091830347
:104B6000892BC1F00E94E8042091A1013091A2019B
:104B7000821B930B2091820330918303821793074A
:104B800020F08091A30182FFE7C10E94120A8111E7
:104B90000E94C3098E85882389F061E0CE010A96C0
:104BA0000E940B0E6C018F8520E5C2162CE7D20601
:104BB00089F4882329F181E0809314010A851B85FB
:104BC0002C853D854E855F85688979898A890E9413
:104BD0002A24CDC031E5C3163CE7D30629F4882347
:104BE00079F00E94DE24EACF42E5C4164CE7D406F1
:104BF00039F4882329F0809114018111F2CFDBCFA1
:104C00009BEAE92E93E0F92E412CB12CA12C8824AB
:104C10008394912CBE016F5F7F4F7A8F698F22241E
:104C20002394F7014081518166246A94762C20E018
:104C3000822F90E0FC01EE0FFF1FE40FF51F608153
:104C400071816115710531F0C616D70609F43C0172
:104C50002F5FEECF312CFFEF6F167F0609F448C0AF
:104C6000F701448130901401832D411180E0F82F29
:104C7000F1703F2EF701558086819F85992309F4B5
:104C8000F7C0332009F4F4C0009196031091970304
:104C9000511013C0A401062C01C0440F0A94EAF776
:104CA000842B86838091A8039091A9038017910794
:104CB00020F41093A9030093A803C40102C0880F35
:104CC000991F2A95E2F70197F701268128171906FF
:104CD00079F48091560490915704009709F44BC0E1
:104CE0000E94CD040817190708F045C0F701248277
:104CF0004328FFEFAF1ABF0A27E0E20EF11C38E0AD
:104D0000A316B10409F08DCF8F85882309F410C153
:104D1000442009F40DC10E94E80490935704809345
:104D200056048091E303883010F591E0980F90933A
:104D3000E30399E0FE013A96DE01119601900D928F
:104D40009A95E1F74DE0849FC00111248C519C4F4E
:104D500029E0FE013196DC0101900D922A95E1F7E0
:104D60002FEF3FEFFC0132872187D486C3866E96F2
:104D7000E2E10C94E2328091540450915504982F52
:104D8000F0E0E0E0851314C090935404EE16FF06A3
:104D900009F4AECF90E0FC01EE0FFF1FE45BFB4F88
:104DA000B182A08201968370992780935504A0CF89
:104DB000682E712CF301EE0FFF1FE45BFB4F208187
:104DC0003181F7E0F29FD001F39FB00D1124A5557A
:104DD000BC4F2D913C9111973E8F2D8F40E020E0EC
:104DE00030E0E32FF0E0EE0FFF1F6D8D7E8DE60FBC
:104DF000F71F0081118101151105E1F0F701019004
:104E0000F081E02DFC8FEB8F20E005C0061717071F
:104E100009F4432D2F5FE22FF0E0EE0FFF1F6B8DA3
:104E20007C8DE60FF71F608171816115710571F747
:104E30003F5FD7CF4423C9F0F701231708F0FD01E6
:104E40002482EE16FF0621F490935404342E50CFA2
:104E5000981305C0AE17BF0711F49F5F93709301BD
:104E60002F5F3F4F822F83708DCFF0E0E0E0F7CFD0
:104E700090E0511020C0B40102C0660F771F2A9540
:104E8000E2F79B01215031098217930731F4442343
:104E900009F44CC0C5010E94C205C401062C01C022
:104EA000880F0A94EAF7982F9095F7018681892355
:104EB0008683352C1DCFAC01062C02C05595479535
:104EC0000A94E2F7BA01617077279C0121503109F9
:104ED00082239323892B31F5672B21F1F7018281FE
:104EE0009381892BE1F0E98DFA8D27E011922A95C3
:104EF000E9F70E94E804282F8B839C8334E03D83EC
:104F0000F70182819381782F8887998709811A8197
:104F10003C8144E05E816F81892F0E942A24F70141
:104F20001582BBCFF42FF1705F2EB7CF532CB5CFC6
:104F30009091540480915504981729F00E94ED2413
:104F4000411015CF3BCE0E94952410925704109229
:104F500056040E94F005F4CF82E00E94010B15CEAA
:104F6000A6E0B0E0E6EBF7E20C94D6329093EF01C6
:104F70008093EE01811520E2920730F40E944316DF
:104F80002696E2E00C94F23280EF89838A830E94B5
:104F9000E8048160682F9C838B8349815A817C81DE
:104FA00081E090E00E948125EBCF0F931F93CF9378
:104FB000DF938C01EB0168EF71E08C2F0E94180DDC
:104FC000892BA1F480919E0390919F030E94BF0CB6
:104FD000DD27C051DE4F8881F801128218828330AC
:104FE000F1F048F4813059F0823081F0DF91CF91B7
:104FF0001F910F9108958430B9F08530B9F78091F1
:10500000F8019091F901009789F306C08091FA01A7
:105010009091FB01009799F30E94B027E7CF809110
:10502000FC019091FD01F6CF8091FE019091FF016E
:10503000009791F72091F8013091F9018091FA01E0
:105040009091FB0121153105F1F2009729F7C90173
:10505000E3CFA6E0B0E0EFE2F8E20C94D632909312
:10506000EF018093EE01811520E2920730F40E9457
:1050700018182696E2E00C94F23280EF89838A8336
:105080000E94E8048160682F9C838B8349815A8148
:105090007C8181E091E00E948125EBCFCF93DF936B
:1050A000EC010E94292880919E0390919F030E9409
:1050B000BF0CCE010E94B027DF91CF9108950F93CE
:1050C0001F93CF93DF938C01862F68EF71E00E94CE
:1050D000180D892BB1F4C091F801D091F9012097F6
:1050E00081F0F8018281833051F4CE010E944E2874
:1050F000CE010E944E28CE010E944E2802C084306C
:10510000D0F7DF91CF911F910F9108950F931F93C7
:10511000CF93DF938C01EB0168EF71E08C2F0E943D
:10512000180D892B09F05CC0FE01FF27D8011296EB
:105130008C911297E051FE4F8130B9F415969C91F5
:1051400092FF02C080830AC090FFFCCF82E0808380
:105150008091FA019091FB010097B9F48091F801D8
:105160009091F9010097E1F110C08230B9F51596E0
:105170008C9182FD28C080FD0BC083E080838091EC
:10518000FC019091FD01009701F10E94292828C09F
:1051900084E080838091FE019091FF010097A9F740
:1051A0008091F8019091F9010097F9F00E944E2842
:1051B0008091FA019091FB01009739F78091F801F5
:1051C0009091F901E2CF85E080838091F801909180
:1051D000F901009729F00E944E28F0CF86E08083E5
:1051E000DF91CF911F910F9108958091FA019091D5
:1051F000FB01B8CFA6E0B0E0E0E0F9E20C94D432D5
:105200000E94E8048C018091AF019091B001801759
:10521000910781F019821A820E94E804682F49815F
:105220005A81792F80E090E00E9481251093B0018F
:105230000093AF012696E4E00C94F0321F920F9297
:105240000FB60F9211242F933F934F935F936F9359
:105250007F938F939F93AF93BF93CF93DF93EF93FE
:10526000FF93D091E900DF708091EC00C82FC170EE
:1052700080FDC0E81092E9008091F000877F809364
:10528000F00078940E941D111092E9008091F000C6
:1052900088608093F000CD2BCF70C093E900FF9120
:1052A000EF91DF91CF91BF91AF919F918F917F91BE
:1052B0006F915F914F913F912F910F900FBE0F9083
:1052C0001F9018951F920F920FB60F9211242F93D3
:1052D0003F934F935F936F937F938F939F93AF937E
:1052E000BF93EF93FF938091E10082FF09C080910B
:1052F000E20082FF05C08091E1008B7F8093E10096
:105300008091DA0080FF24C08091D80080FF20C007
:105310008091DA008E7F8093DA008091D90080FF3F
:105320009DC080E189BD82E189BD09B400FEFDCF49
:1053300081E080938A0480917D04811109C00E94DC
:105340005F030E9400048091E20084608093E20089
:105350008091E10080FF17C08091E20080FF13C0C0
:105360008091E2008E7F8093E2008091E200806174
:105370008093E2008091D80080628093D80019BCAD
:1053800085E080938A048091E10084FF2BC08091A6
:10539000E20084FF27C080E189BD82E189BD89B533
:1053A000982F917080FFFBCF8091D8008F7D8093E4
:1053B000D8008091E1008F7E8093E1008091E2002F
:1053C0008F7E8093E2008091E20081608093E20012
:1053D00080918B04882309F447C084E080938A0479
:1053E00080918A048091E10083FF27C08091E200D0
:1053F00083FF23C08091E100877F8093E10082E0FA
:1054000080938A0410928B048091E1008E7F8093B8
:10541000E1008091E2008E7F8093E2008091E200C3
:1054200080618093E20042E060E080E00E94CE0371
:105430008091F00088608093F000FF91EF91BF9120
:10544000AF919F918F917F916F915F914F913F911C
:105450002F910F900FBE0F901F90189519BC1092AE
:105460008A0410927D0474CF8091E30087FD93E05D
:1054700090938A04B5CF78941F921FB61F9211247F
:105480008F939F93AF93BF938091790490917A0407
:10549000A0917B04B0917C040196A11DB11D809365
:1054A000790490937A04A0937B04B0937C04BF9119
:1054B000AF919F918F911F901FBE1F9018951F92C3
:1054C0001FB61F9211248F939F93AF93BF93809128
:1054D0007804811113C08091790490917A04A0918D
:1054E0007B04B0917C044196A11DB11D8093790489
:1054F00090937A04A0937B04B0937C04BF91AF9106
:105500009F918F911F901FBE1F901895CDB7DEB74A
:10551000ED970FB6F894DEBF0FBECDBF85B780689C
:1055200085BF85B7806885BF84B7877F84BF0FB686
:10553000F894A89580916000886180936000109233
:1055400060000FBE80E890E00FB6F8948093610091
:10555000909361000FBE8BE997E090937701809361
:1055600076010E94A9060E944A0F0E94BE0E0E9468
:10557000370E0E945F030E9400048091E200846065
:105580008093E200789480918A048823A1F010919E
:10559000E9001F709091EC00892F817090FD80E8E8
:1055A000182B1092E9008091E80083FD0E941D11E4
:1055B0001F701093E90082E084BD93E095BD9AEFDF
:1055C00097BD80936E000E945D0E811102C00E9403
:1055D000C31481E30E949D0783E30E949D0782E339
:1055E0000E949D0786E30E949D070BE511E0D8010C
:1055F0008D918D018F3F11F00E949D07B1E007361C
:105600001B07A9F788E0E7EDF1E0DF01282F1D92E5
:105610002A95E9F7E4EBF1E0DF011D928A95E9F7BD
:1056200090E080E00E943B33863E9E4F21F40E9432
:105630005D0E811167C066EE7EEF90E080E00E9413
:105640006F3360E082E090E00E94513360E083E0DD
:1056500090E00E9451331092BC0160E074E184E05C
:1056600090E00E946F3360E086E090E00E9451334A
:105670006FEF87E090E00E94513340E050E0BA01C4
:1056800088E090E00E94633360E084E290E00E9452
:10569000513360E087E190E00E94513360E08CE09C
:1056A00090E00E94513360E08DE090E00E94513321
:1056B00019821A821B821C821D821E821F821886FA
:1056C00048E050E068E170E0CE0101960E9441336D
:1056D00040E050E0BA0180E290E00E94633380E055
:1056E0000E94FF0C0E94C31440E050E0BA018FE01A
:1056F00090E00E94633340E050E0BA0183E190E023
:105700000E94633382E090E00E9433338093BE01B5
:1057100084E090E00E943B3390935E0380935D03AE
:105720000E948E0FEFEFF6E721E0E150F0402040BD
:10573000E1F700C000000E948E0F8091D70180FF2A
:1057400008C06FEF7FEF90E080E00E946F330E940F
:10575000BC0483E090E00E9433330E943B0B81E065
:1057600091E090937504809374043324339422243D
:105770002394CE018B969BAF8AAF80918A0400E17F
:1057800012E1853009F490C00E948E0FBFEBCB2E42
:10579000B1E0DB2E17ED812E11E0912E47EC51E0A8
:1057A000D401F601219131918D919D914E175F07A2
:1057B00009F484C028173907A9F3712CD4010D917D
:1057C0001D914D01F601A190B1906F01A016B10697
:1057D00059F1A026B126612CEE24E394F12CC701E7
:1057E0008A219B21892BB1F06CAA7DAA0E94E80432
:1057F0009FAB8EAB28AE91E0970120233123232B62
:1058000009F490E099AF4CA95DA96EA97FA988AD74
:105810000E9481256394EE0CFF1CFCE06F12DFCF29
:10582000F601329711830083739424E07212C6CF7D
:105830000E94DC0449C080918A04843021F11092D6
:105840007804A8E1B0E0E0E40FB6F894A895A0933E
:1058500060000FBEE093600083B7817F846083BFE8
:1058600083B7816083BF7894889583B78E7F83BF29
:105870000FB6F894A89580916000886180936000CD
:10588000109260000FBE80918904882369F00E9405
:105890008E0FE7EDF1E081919191892B09F0F0C530
:1058A00021E0EF3DF207B9F780918A04853009F4D1
:1058B000C2CF0E94F6100E943E0566CF2817390716
:1058C00009F07BCF0E94FA288091690490916A04C4
:1058D000892B09F43EC040915E0450915F046091B1
:1058E0006004709161042FB7F894809179049091CD
:1058F0007A04A0917B04B0917C042FBF841B950B8C
:10590000A60BB70B40915A0450915B0460915C0464
:1059100070915D0484179507A607B707D0F08091B2
:10592000690490916A040E94181810926A041092F7
:10593000690410925E0410925F0410926004109249
:10594000610410925A0410925B0410925C0410924D
:105950005D0400917004109171040115110551F15D
:105960008091C7019091C8010E94CD047C0189E01B
:10597000AAADBBAD1D928A95E9F7BE01655D7F4F6B
:10598000C8010E942C0D8E159F05A0F48091700413
:10599000909171049927E4E0880F991FEA95E1F747
:1059A000FC01E95FFD4F208122FD04C08E5F9D4F09
:1059B0000E94B01080911401882301F18091560457
:1059C000909157040097D1F00E94CD042091A80334
:1059D0003091A9032817390788F4909154048091D5
:1059E0005504981709F4E1C00E94ED241092A90310
:1059F0001092A803109257041092560480919B03B2
:105A000080FF1EC08091130182FF1AC00E94E8042B
:105A10002091A4033091A503AC01421B530B2091AC
:105A20001101309112014217530750F029EC31E077
:105A300041E0BC018091A6039091A7030E94401809
:105A400086E0E8EEF1E08E010F5F1F4FD801019074
:105A50000D928A95E1F7B090E901D090EA01E090CB
:105A6000EB01C090EC01F090ED011092EA01109270
:105A7000EB011092EC011092ED018D2D8E2991F029
:105A80008091E6019091E7010E94CD04AC019091D4
:105A9000E101992309F492C080910F018417150642
:105AA00008F49AC08F2D8C2991F08091E401909197
:105AB000E5010E94CD04AC019091E201992309F423
:105AC000C5C080910B018417150608F4CDC08091E4
:105AD000E9018B1117C08091EA01882311F0D812D7
